:100000001898FF1F05260000252600002D26000059
:10001000352600003D260000452600009D12000008
:100020009D1200009D1200009D120000AD1C0000FA
:100030004D2600009D1200009D120000351A0000A0
:100040009D1200009D1200009D1200009D120000F4
:100050009D1200009D1200009D1200009D120000E4
:100060009D1200009D1200009D1200009D120000D4
:100070009D1200009D1200009D1200009D120000C4
:100080009D1200009D1200009D1200009D120000B4
:100090009D1200009D1200009D1200009D120000A4
:1000A0009D1200009D1200009D1200009D12000094
:1000B0009D1200009D1200009D1200009D12000084
:1000C0009D1200009D1200009D1200009D12000074
:1000D0009D1200009D1200009D1200009D12000064
:1000E0009D1200009D1200009D1200009D12000054
:1000F0009D1200009D1200009D1200009D12000044
:100100009D1200009D1200009D1200009D12000033
:100110009D1200009D1200009D1200009D12000023
:100120009D1200009D1200009D1200009D12000013
:100130009D1200009D1200009D1200009D12000003
:100140009D1200009D1200009D1200009D120000F3
:100150009D1200009D1200009D1200009D120000E3
:100160009D1200009D1200009D1200009D120000D3
:100170009D1200009D1200009D1200009D120000C3
:100180009D1200009D1200009D1200009D120000B3
:100190009D1200009D1200009D1200009D120000A3
:1001A0009D1200009D1200009D1200009D12000093
:0801B0009D1200009D120000E9
:10040000FFFFFFFFFFFFFFFFFFFFFFFFFEFFFFFFFD
:10041000552A000080B487B000AF786039607B68EF
:100420001B78DBB203F00F037B613B681B78DBB208
:1004300003F00F033B617B6903F003037A699208C1
:1004400018498A5C9B1AFB60FB6803F00303FB609E
:100450007B6903F00C037B617A69FB6813437B6162
:100460003B6903F003033A6992080E498A5C9B1AC0
:10047000BB60BB6803F00303BB603B6903F00C0384
:100480003B613A69BB6813433B617A693B699A42B5
:1004900034BF01230023DBB218461C37BD465DF88C
:1004A000047B7047D081FF1F80B584B000AF7860B7
:1004B00039603B685B08FB6020E03B685B007A6862
:1004C0001A4407F1080312881A803B685B007A68B7
:1004D000D118FB685B007A6813440A461B881380B6
:1004E000FB685B007A6813441A4607F108031B880F
:1004F0001380FB683B60FB685B08FB603B68012B7B
:100500000ED9FB685B007A68D1183B685B007A689B
:10051000134408461946FFF77DFF0346002BCCD154
:100520001037BD4680BD00BF80B586B000AF786093
:1005300039607B681B785BB23B6146E07B690133C5
:10054000FB60FA683B699A4210D87B695B007A6865
:10055000D118FB685B007A68134408461946FFF718
:1005600059FF0346002B01D0FB687B613B685B00B1
:100570007A68D1187B695B007A681344084619468B
:10058000FFF748FF0346002B1ED03B685B007A68EC
:100590001A4407F1080312881A803B685B007A68E6
:1005A000D1187B695B007A6813440A461B88138064
:1005B0007B695B007A6813441A4607F108031B88BD
:1005C00013807B693B6000E006E03B685B007B6179
:1005D0007A693B699A42B1D91837BD4680BD00BFE0
:1005E00080B584B000AF0346FB711D4B1B78DBB2B6
:1005F0000133DBB2DAB21A4B1A70194B1B785BB2BB
:10060000FB6097F90730174A52F823305B7DFB7285
:1006100097F90B309B00D9B297F90B30124AD25C94
:10062000013AD0B2104AD0540F4AD35CDBB203F087
:100630000303DBB20A461343BB720949FB68BA7A6B
:1006400001F81320064AFB685B001344FA795A70DC
:100650000348F968FFF728FF1037BD4680BD00BF8B
:10066000C481FF1F501E0000D081FF1F80B584B0E1
:1006700000AF0346FB71124B1B78DBB20133DBB2D8
:10068000DAB20F4B1A700E4B1B785BB2FB6097F916
:1006900007300C4A52F823305B79FB720849FB683B
:1006A000FA7A01F81320064AFB685B001344FA79D2
:1006B0005A700348F968FFF7F7FE1037BD4680BD52
:1006C000C481FF1F641E000080B483B000AF094ADC
:1006D0003B1D023212881A8000233A7962F3070325
:1006E0007A7962F30F2318460C37BD465DF8047B18
:1006F000704700BFC481FF1F80B584B000AF164BA8
:100700001B78DBB2DAB2013AD2B2D1B2124A11701E
:100710005BB2FB600123BB600F4A3B46023212888A
:100720001A800D48BB680C49FA685B00034452000C
:100730000A4412881A800848B968FFF7F5FE3B881A
:10074000BB8000233A7962F307037A7962F30F23BF
:1007500018461037BD4680BDC481FF1F80B483B0EA
:1007600000AF0423FB71114B1B69B3F1FF3F02D1B2
:100770000023FB7113E00D4B1B69032B02DD0223E9
:10078000FB710CE0094B1B69032B02DC0123FB719D
:1007900005E0064B1B69032B01DC0323FB71FB798E
:1007A00018460C37BD465DF8047B7047D481FF1FA7
:1007B00090B484B000AF0346FB7197F907301C4A30
:1007C00052F823301B69FB60FB68002B2BD0FB68C1
:1007D0009B78002B27D1FB6801229A7097F907308C
:1007E000144A52F823305A79FB685A7097F9073047
:1007F000104A52F82320FB681B785BB29B00D8B2EA
:10080000FB681B785BB20C49C95C0139CCB20A4960
:10081000CC540949CB5CDBB203F00303DBB20146E5
:100820000B43DBB253711037BD4690BC704700BF1D
:10083000501E0000641E0000D081FF1F80B485B0F0
:1008400000AF0346FB7197F907300E4A52F8233088
:100850001B69FB60FB68002B0ED0FB689B78012BAB
:100860000AD1FB6800229A7097F90730064A52F8BD
:100870002330FA6852785A711437BD465DF8047B0C
:10088000704700BF501E0000641E000080B500AF1E
:10089000084B1A69074B5B699A420AD0054BDB6823
:1008A00001229A71034B5B69DBB25BB21846FFF71A
:1008B000DDFE80BDD481FF1F80B584B000AF03464C
:1008C000FB71FB79002B02D0194B1B6800E0002361
:1008D000FB60FB79002B0FD0154B9B689B79032B9A
:1008E0000AD0134B9B6801229A71114B1B69DBB232
:1008F0005BB21846FFF7BAFE0D4BDB680C4A9360FB
:100900000B4B5B680A4A1360094B5B69084A136129
:10091000074B9B6802229A71054B1B69DBB25BB2E5
:100920001846FFF745FFFB6818461037BD4680BDE7
:10093000D481FF1F80B582B000AFFFF7DDFE034614
:10094000BB807B795BB2124A53617B795BB2114AFF
:1009500052F823300E4AD3607B795BB20E4A52F8CC
:1009600023300B4A53600A4BDB689B79052B0BD174
:100970007B795BB2184600F031F97B795BB2054AAE
:1009800052F823303A795A710837BD4680BD00BF0E
:10099000D481FF1F641E0000501E000080B582B08D
:1009A00000AF0023FB710C4B99780C4B5B690C4A30
:1009B00052F823305B794AB25BB29A4205DDFFF709
:1009C00065FFFFF7B7FF0323FB71044AFB7913763A
:1009D0000837BD4680BD00BFC481FF1FD481FF1F03
:1009E000641E000080B582B000AF144B1B69DBB2FF
:1009F0005BB21846FFF722FF104B9B681B79002B58
:100A000015D00E4B9B6805229A710C4B1B69002B6D
:100A100011DC0A4B1B690A4A52F823307B607B6861
:100A200000225A707B685A787B681A7003E0034B87
:100A30009B6800229A710837BD4680BDD481FF1F94
:100A4000781E000080B500AF084B9B6803229A71A6
:100A5000064B1B69DBB25BB21846FFF7EFFEFFF7F0
:100A600069FF024B03221A7680BD00BFD481FF1FAD
:100A700080B500AFFFF75EFF014B01221A7680BD03
:100A8000D481FF1F80B586B000AF0346FB710423FD
:100A9000FB7597F907301E4A52F823303B6197F9EE
:100AA00007301C4A52F82330FB603B691A79FB6817
:100AB0009B7D9A4227D23B691B79002B16D13B695B
:100AC00005229A7197F90730002B0CDC97F9073053
:100AD000114A52F82330BB60BB6800225A70BB68D1
:100AE0005A78BB681A700D4B01225A760023FB75A9
:100AF00097F907301846FFF773FD3B691B790133FF
:100B0000DAB23B691A71FB7D18461837BD4680BDC5
:100B1000641E0000501E0000781E0000D481FF1FDC
:100B200080B584B000AF0346FB7197F90730094ADE
:100B300052F82330FB60FB6801229A7197F9073065
:100B40001846FFF74DFD044B01225A761037BD467B
:100B500080BD00BF641E0000D481FF1F80B586B039
:100B600000AF03460A46FB711346BB710023FB75B9
:100B700097F90730174A52F823303B6197F907304D
:100B8000154A52F82330FB603B699B79002B1AD041
:100B9000FB681A78BB791343DAB2FB681A70FB68FA
:100BA0005A78BB791340DBB2002B0ED0FB680022D1
:100BB0005A703B699B79032B07D197F90730184688
:100BC000FFF7AEFF01E00723FB75FB7D18461837E2
:100BD000BD4680BD641E0000781E000080B584B054
:100BE00000AF0346FB7197F90730074A52F82330EC
:100BF000FB60FB6800221A6097F90730184600F086
:100C0000B5FF1037BD4680BD641E000080B584B0BE
:100C100000AF0346FB7197F90730012202FA03F394
:100C20007B7300233B730420FFF72CFF03463B73C9
:100C30000023FB8112E0FB890B4AD25C7B7B1340D3
:100C4000DBB2002B07D0FB89DBB25BB21846FFF7A3
:100C500019FF03463B73FB890133FB81FB89032B9F
:100C6000E9D91037BD4680BD441F000080B500AFF4
:100C700000F02EFA0346002B01D000F04BFA074B90
:100C80009B681B68002B06D0044B1B69DBB25BB270
:100C9000184600F069FC00F03DFB80BDD481FF1FC9
:100CA00080B582B000AF0023FB7100F011FA03465B
:100CB000002B03D000F02EFA1323FB71094B9B6825
:100CC0001B68002B08D0074B1B69DBB25BB21846D0
:100CD00000F04AFC0623FB7100F0BEFA0837BD465F
:100CE00080BD00BFD481FF1F80B400AF034B012241
:100CF0001A70BD465DF8047B704700BF0380FF1F7C
:100D000080B487B000AF78607B681B681B68FB60AD
:100D1000FB685B697B6100233B617B69002B0DD124
:100D2000FB687A685A61FB687A689A617B6800227E
:100D30009A607B689A687B685A604CE004E07B6943
:100D40003B617B695B687B617B69002B05D07B69BC
:100D50001A697B681B699A42F1D97B687A695A6083
:100D60007B683A699A607B69002B02D07B697A685C
:100D70009A603B69002B03D03B697A685A6002E0B5
:100D8000FB687A685A61FB689B691A69FB681B6992
:100D90009A4210D27B681A69FB681B699A4206D88E
:100DA0007B681A69FB689B691B699A4213D2FB68CE
:100DB0007A689A610FE07B681A69FB681B699A423E
:100DC00009D97B681A69FB689B691B699A4202D240
:100DD000FB687A689A611C37BD465DF8047B7047F2
:100DE00080B485B000AF78607B681B681B68FB60CF
:100DF000FB685A697B689A4203D17B685A68FB6832
:100E00005A61FB689A697B689A4203D17B685A6889
:100E1000FB689A617B685B68002B04D07B685B6829
:100E20007A6892689A607B689B68002B04D07B6824
:100E30009B687A6852685A60FB689B69002B03D1F3
:100E4000FB685A69FB689A611437BD465DF8047BFC
:100E5000704700BF80B48BB000AF78607B689B693F
:100E6000FB6100237B62FB69002B43D0FB693B6283
:100E7000FB691B69BB610023FB750123FB753B6AA2
:100E80003B613B6A5B683B623B6A002B04D03B6A78
:100E90001A69BB699A42F0D0FB699B683B623B6967
:100EA0005B68FB603B6A002B02D03B6AFA685A60C1
:100EB000FB68002B02D0FB683A6A9A607B685A692B
:100EC000FB699A4202D17B68FA685A61FB7D012B6B
:100ED00002D17B689B697B62FB68002B03D07B6837
:100EE000FA689A6103E07B685A697B689A613B699A
:100EF00000225A607B6A18462C37BD465DF8047B99
:100F0000704700BF80B588B000AF7860334B1B7866
:100F1000002B5FD07B68DB685A1C7B68DA607B68DB
:100F2000DA687B681B689A4254D17B681B69BB6195
:100F3000BB690133BB617B685A68BB699A4201D2C5
:100F40000023BB617B68BA691A617B680022DA60A2
:100F50007B689B69FB61FB69002B3BD0FB691A69CD
:100F6000BB699A4236D17868FFF774FF38613B69F4
:100F7000002B2FD03B69FB61FB695B68FB60FB6961
:100F80001B685B68BB60BB68F8699847FB69DB68F6
:100F9000002B17D0FB691A69FB69DB6813447B617E
:100FA0007B685A687B699A4205D27B685B687A697C
:100FB000D31A013B7B61FB697A691A61F869FFF713
:100FC0009FFE02E0FB6900221A75FB68FB61FB696A
:100FD000002BD1D12037BD4680BD00BF0380FF1F4D
:100FE00080B582B000AF78607B685B68984708374F
:100FF000BD4680BD80B584B000AF78600023FB7330
:101000007B681B795BB21846FFF73CFD0346FB7318
:101010001037BD4680BD00BF80B584B000AF78609A
:101020000023FB737B681A797B685B7952B21046A8
:101030001946FFF793FD0346FB731037BD4680BD8D
:1010400080B582B000AF0023FB7100F041F8034689
:10105000002B01D01323FB71044B1B78BB71BB79B0
:101060005BB218460837BD4680BD00BF0480FF1F35
:1010700080B584B000AF0346FB710023FB73FB7B9C
:10108000002B06D1FFF76AFB0346002B01D0072394
:10109000FB73FB7B002B0BD1074AFB79137097F98D
:1010A00007301846FFF7B2FDFFF71EFEFFF7E0FC22
:1010B0001037BD4680BD00BF0480FF1F80B582B0E1
:1010C00000AF0346FB7100F0D7FD0837BD4680BD79
:1010D00080B483B000AF0C4B1B78012B07D00B4BB7
:1010E0001B68002B03D10A4B1B68002B02D0012385
:1010F000FB7101E00023FB71FB7918460C37BD46FC
:101100005DF8047B704700BF0C80FF1F1480FF1F39
:101110001080FF1F80B400AF084B00221A70084BEC
:1011200000221A60074B00221A60074B1B68074A0F
:101130001360BD465DF8047B704700BF0C80FF1F45
:101140001080FF1F1480FF1F1880FF1F0880FF1FE3
:1011500080B500AF00F000FD054B1B680133044A69
:101160001360044B1B680133024A136080BD00BF4B
:101170000880FF1F1080FF1F80B500AF0A4B1B685F
:10118000002B0FD0094B1B68013B084A1360064B2C
:101190001B68013B044A1360044B1B68002B01D100
:1011A00000F0D2FC80BD00BF1080FF1F0880FF1F31
:1011B00080B500AF064B1B68002B08D1054B1B68A0
:1011C000002B04D100F0C8FC034B01221A7080BD33
:1011D0001080FF1F1480FF1F0C80FF1F80B500AF21
:1011E000044B1B78002B04D0024B00221A7000F035
:1011F000ABFC80BD0C80FF1F80B500AF00F0ACFCE5
:10120000054B1B680133044A1360044B1B68013310
:10121000024A136080BD00BF0880FF1F1480FF1FBB
:1012200080B500AF0A4B1B68002B0FD0094B1B6821
:10123000013B084A1360064B1B68013B044A1360DC
:10124000044B1B68002B01D100F07EFC80BD00BF69
:101250001480FF1F0880FF1F80B582B000AF0023FD
:10126000FB71FFF735FF0346002B01D01323FB7101
:10127000FB79002B01D10223FB71FB79002B06D1F6
:10128000054B9B681B68002B01D00623FB71FB7983
:1012900018460837BD4680BDD481FF1F80B483B097
:1012A00000AF78600C37BD465DF8047B704700BF27
:1012B00080B584B000AF0346FB710023FB73FFF7DA
:1012C00007FF0346002B01D01323FB73FB7B002B8E
:1012D00009D197F90730032B03DC97F90730002B6E
:1012E00001DA0323FB73FB7B002B0CD197F907304A
:1012F0001846FFF7C7FB0346FB73054B5B7E002BCD
:1013000001D0FFF74BFBFB7B18461037BD4680BD75
:10131000D481FF1F80B582B000AF0023FB71FFF7BF
:10132000D7FE0346002B01D01323FB71FB79002B62
:1013300006D1FFF713FA0346012B01D00223FB71FC
:10134000FB79002B06D10E4B9B681B68002B01D04C
:101350000623FB71FB79002B0CD1094B9B681A7992
:10136000013AD2B21A71FFF73DFBFFF7E3FA044BE3
:1013700001221A76FB7918460837BD4680BD00BFAA
:10138000D481FF1F80B584B000AF0346FB710023FA
:10139000FB73FFF79DFE0346002B01D01323FB7365
:1013A000FB7B002B06D1FFF7D9F90346012B01D0B7
:1013B0000223FB73FB7B002B09D197F90730032B2A
:1013C00003DC97F90730002B01DA0323FB73FB7B67
:1013D000002B06D1164B9B681B68002B01D00623FF
:1013E000FB73FB7B002B1DD1114B9B681A79013AD3
:1013F000D2B21A7197F907301846FFF743FB03463C
:10140000FB73FB7B002B07D1FFF7ECFAFFF792FA97
:10141000074B01221A7605E0054B9B681A790132C9
:10142000D2B21A71FB7B18461037BD4680BD00BF93
:10143000D481FF1F80B582B000AF0023FB71FFF79E
:1014400047FE0346002B01D01323FB71FB79002BD1
:1014500006D1FFF783F90346012B01D00223FB716C
:10146000FB79002B06D1124B9B681B68002B01D027
:101470000623FB71FB79002B15D10D4B1B69DBB2E9
:101480005BB21846FFF7DAF9FFF788FA084B1A69DA
:10149000074B5B699A4206D1054B1B69DBB25BB215
:1014A0001846FFF785F9FB7918460837BD4680BD19
:1014B000D481FF1F80B584B000AF78600023FB7338
:1014C000FFF706FE0346002B01D01323FB73FB7BC3
:1014D000002B0DD1094B1B69032B05DC074B1B6946
:1014E000DAB27B681A7003E0054B1A787B681A70D1
:1014F000FB7B18461037BD4680BD00BFD481FF1F5F
:10150000D11D000080B584B000AF03463960FB7187
:101510000023FB73FFF7DCFD0346002B01D01323F0
:10152000FB73FB7B002B09D197F90730032B03DCFE
:1015300097F90730002B01DA0323FB73FB7B002BA9
:101540000AD197F90730074A52F823309B7903F004
:101550000303DAB23B681A70FB7B18461037BD46AE
:1015600080BD00BF641E000080B485B000AF03469C
:10157000FB7197F90730114A52F823301B68FB6062
:10158000FB68002B15D097F907300C4A52F823302E
:1015900000221A60FB685B68BB60094B1A78FB6825
:1015A0009A70FB6800225A60BB68FB60FB68002BE6
:1015B000F0D11437BD465DF8047B7047641E00000F
:1015C000D11D000090B585B000AF0346FB7100232C
:1015D000FB73FFF77DFD0346002B01D01323FB7344
:1015E000FB7B002B04D1FB79002B01D00323FB7381
:1015F000FB7B002B56D1FB792D4A52F82330BB6080
:10160000FB7B002B12D1BB689A782A4B1B7852B215
:101610005BB29A4208D1284B1B685A7DBB681B7885
:1016200052B25BB29A4201DD0123FB73FB7B002BBC
:1016300038D1214B1B69DAB2BB689A701E4B9B688C
:101640001A68BB685A601C4B9B68BA681A601A4BD0
:101650009B685A79BB685A70174B9B685B795BB281
:101660009B10DAB2BB681B7852B25BB29A4219DAAD
:10167000114B9A68BB681B785BB29B00D8B2BB6801
:101680001B785BB20D49C95C0139CCB20B49CC5413
:101690000A49CB5CDBB203F00303DBB201460B4328
:1016A000DBB25371FB7B18461437BD4690BD00BFBB
:1016B000D41D0000D11D0000D481FF1FD081FF1F69
:1016C00080B584B000AF0346FB710023FB73FFF7C6
:1016D000FFFC0346002B01D01323FB73FB7B002B85
:1016E00004D1FB79002B01D00323FB73FB7B002B80
:1016F00033D1FB791B4A52F82330BB60FB7B002BB4
:101700000AD1194B1B685A7DBB681B7852B25BB279
:101710009A4201DD0123FB73FB7B002B07D1124BA7
:101720009B681A68BB689A4201D00523FB73FB7B58
:10173000002B12D10C4B9B68BA6852785A710A4B35
:101740009B68BA6852681A60BB6800225A60074BEF
:101750001A78BB689A70FFF721F9FB7B184610379F
:10176000BD4680BDD41D0000D481FF1FD11D0000E7
:1017700080B584B000AF03460A46FB711346BB71C7
:101780000023FB73FFF7A4FC0346002B01D01323B7
:10179000FB73FB7B002B09D197F90730032B03DC8C
:1017A00097F90730002B01DA0323FB73FB7B002B37
:1017B00009D197F90730174A52F82330DB7D012B06
:1017C00001D00123FB73FB7B002B09D197F9073074
:1017D000114A52F823309B79002B01D10723FB7368
:1017E000FB7B002B11D197F90720BB7910461946D6
:1017F000FFF7B4F90346FB73FB7B002B05D1074BC6
:101800005B7E002B01D0FFF7C9F8FB7B1846103731
:10181000BD4680BD501E0000641E0000D481FF1F25
:1018200080B584B000AF0346FB710023FB73FFF764
:101830004FFC0346002B01D01323FB73FB7B002BD3
:1018400006D1FEF78BFF0346012B01D00223FB7369
:10185000FB7B002B05D1114B1B69002B01DD012304
:10186000FB73FB7B002B14D10C4B1B69DBB25BB20F
:101870000B4A52F82330094A1269D2B252B20849CF
:1018800051F822201178FA79D243D2B20A40D2B26A
:101890001A70FB7B18461037BD4680BDD481FF1FF0
:1018A000781E000080B584B000AF03463960FB713C
:1018B0000023FB73FFF70CFC0346002B01D013231E
:1018C000FB73FB7B002B09D197F90730032B03DC5B
:1018D00097F90730002B01DA0323FB73FB7B002B06
:1018E00009D197F90730124A52F82330DB7D012BDA
:1018F00001D00123FB73FB7B002B09D197F9073043
:101900000C4A52F823309B79002B01D10723FB733B
:10191000FB7B002B07D197F90730074A52F8233099
:101920001A783B681A70FB7B18461037BD4680BD9D
:10193000501E0000641E0000781E000080B584B0B8
:1019400000AF0346FB710023FB731F4B1B691F4A4B
:1019500052F82330BB60FFF7BBFB0346002B01D0DE
:101960001323FB73FB7B002B06D1FEF7F7FE034628
:10197000012B01D00223FB73FB7B002B05D1124B03
:101980001B69002B01DD0123FB73FB7B002B06D1C0
:101990000D4B9B681B68002B01D00623FB73FB7B60
:1019A000002B0CD1BB68FA795A70BB681A78BB68F7
:1019B0005B781340DBB2002B01D1FFF743F8FB7BD0
:1019C00018461037BD4680BDD481FF1F781E000029
:1019D00080B500AF0848FFF795FA084B1B68013344
:1019E000064A1360064B5B7E012B01D1FEF7D6FF42
:1019F0000123184680BD00BF2480FF1F4080FF1FC9
:101A0000D481FF1F80B500AFFFF7E2FF80BD00BFAC
:101A1000DFF8D0C0DCF8004004F10104CCF800404D
:101A20007047DFF8C0C0DCF80040A4F10104CCF836
:101A30000040704785B0EFF3098CCDF800C00394E7
:101A40000495DFF8A4C0CDF808C0CDF804E06D46D9
:101A500000B5FFF7DDFF5DF804EBD5F808C04FF0E7
:101A600000048CF818408CF81940FFF7CBFFD5F82C
:101A700008C09CF818C0BCF1000F1ED04FF0000049
:101A8000D5F808C09CF818C01CF0020F0AD04FF01F
:101A90000100D5F808C0DCF800C000B500F082FDF8
:101AA0005DF804EBFEF708FFD5F808C0DCF800C0CD
:101AB00000B500F08FFD5DF804EBD5F808C04FF0DD
:101AC00000048CF8184000B5FFF7ABFF5DF804EB9D
:101AD000039C049DDDF804E0DDF800C08CF3098868
:101AE00005B07047F081FF1FD481FF1F80B400AFA5
:101AF000BD465DF8047B704780B400AFBD465DF81D
:101B0000047B704780B582B000AF084B00221A609A
:101B100000F03AF9FFF7EAFF03237B607B6883F369
:101B20001488BFF36F8F0837BD4680BDF081FF1F5B
:101B300080B400AFBD465DF8047B704780B400AF51
:101B4000BD465DF8047B704780B400AF20F0C00054
:101B5000BD465DF8047B704780B400AF40F0C00024
:101B600040F0C000BD465DF8047B704780B487B08C
:101B700000AF0346FB7197F90730314A52F8233022
:101B8000FB60FB681B68BB60FB685B683B61002314
:101B90007B6107E0BB687A69002143F822107B690A
:101BA00001337B617B690F2BF4DDFB685B681A46B0
:101BB000FB689B681344A3F12002BB681A64FB68AE
:101BC0009B68203B9B087B6107E03B691A1D3A61DB
:101BD0001C4A1A607B69013B7B617B69002BF4DC4A
:101BE0003B691A1D3A6100221A603B691A1D3A616D
:101BF00000221A603B691A1D3A6100221A603B6993
:101C00001A1D3A6100221A603B691A1D3A610022CE
:101C10001A603B691A1D3A610B4A1A603B691A1D2A
:101C20003A61FA68D2681A603B691A1D3A614FF04E
:101C300080721A601C37BD465DF8047B704700BF98
:101C4000501E0000EFBEADDE8122000080B485B0E2
:101C500000AF0346FB710023FB73FB7B1846143770
:101C6000BD465DF8047B704780B500AFFFF744FFC9
:101C7000FFF748FF80BD00BF80B400AF72B630BF31
:101C8000FDE700BF68467047DFF8F0C0DCF80040B1
:101C900004F10104CCF800407047DFF8E0C0DCF844
:101CA0000040A4F10104CCF800407047FFE7172B77
:101CB0004FD285B0EFF3098CCDF800C003940495A2
:101CC000DFF8BCC0CDF808C0CDF804E06D4600B523
:101CD000FFF7DAFF5DF804EBDFF8A8C05CF823300B
:101CE000D5F808C04FF000048CF818408CF8194063
:101CF0009847D5F800C0CCF80000D5F808C09CF88B
:101D000018C0BCF1000F24D0DFF870C0DCF8004030
:101D1000012C1ED84FF00000D5F808C09CF818C060
:101D20001CF0020F0AD04FF00100D5F808C0DCF813
:101D300000C000B500F036FC5DF804EBFEF7BCFD1A
:101D4000D5F808C0DCF800C000B500F043FC5DF831
:101D500004EBD5F808C04FF000048CF8184000B52B
:101D6000FFF79BFF5DF804EB039C049DDDF804E0A6
:101D7000DDF800C08CF3098805B07047F081FF1FC3
:101D8000D481FF1F7C1E000080B400AF0A4B0B4AB9
:101D90001A600B4B00221A600A4B07221A600A4B8A
:101DA0004FF000421A60094B4FF000421A60BD46E6
:101DB0005DF8047B704700BF14E000E0FF7601008F
:101DC00018E000E010E000E020ED00E01CED00E095
:101DD000FFFF00FF1C80FF1F4480FF1FF481FF1FD7
:101DE0002C0100001D26000000000000040001007E
:101DF0009080FF1F0084FF1FF4010000D124000029
:101E00000000000000020101E080FF1F0086FF1FAC
:101E1000F4010000B12300000000000001010100F6
:101E20002C81FF1F0088FF1FF40100001124000017
:101E300000000000020101007881FF1F008AFF1FDF
:101E4000F401000071240000000000000301010003
:101E5000F01D0000081E0000201E0000381E0000BB
:101E6000D81D0000D480FF1F2481FF1F7081FF1F39
:101E7000BC81FF1F8880FF1FDC80FF1F4110000016
:101E800071100000BD100000DD110000B111000054
:101E9000791100005111000021120000F911000019
:101EA000A10C0000B1120000151300008513000002
:101EB00035140000B5140000051500006D0C00007D
:101EC000C5150000C11600007117000021180000A0
:081ED000A51800003D190000F7
:101ED800010204000102030001000000FF7F00006E
:101EE80001000000001F0000081F00000C1F000078
:101EF800101F0000141F00007365727665720000E1
:101F08007431000074320000743300002A69646C74
:101F1800652A00007331202000000000663120008F
:101F28007332202000000000663220007333202026
:101F380000000000663320000000000001000000DF
:101F48004008FE4340A004404408FE4344A0044027
:101F58000018FE4300C004403000FE4330900440A7
:101F68003400FE43349004401C18FE431CC0044057
:101F78001018FE4310C004400818FE4308C004406F
:101F88000C18FE430CC004400C10FE430CB0044077
:101F98001010FE4310B004401810FE4318B004405F
:101FA8001C10FE431CB004401410FE4314B004403F
:101FB8000418FE4304C004400010FE4300B004406F
:101FC8000008FE4300A004400408FE4304A00440A7
:101FD8000C08FE430CA004400808FE4308A0044077
:101FE8001418FE4314C004401818FE4318C00440D7
:101FF8000410FE4304B004400810FE4308B0044037
:102008001400FE43149004404C08FE434CA00440C6
:102018000420FE4304D004402410FE4324B00440AE
:102028002010FE4320B004402810FE4328B004408E
:102038002C10FE432CB004400020FE4300D0044086
:102048004808FE4348A004401000FE431090044096
:102058000000000000000000A12F000089330000EC
:1020680000000000000000000D2800008933000077
:1020780080B582B000AF0346FB71FEF76BFB0346E9
:10208800002B01D1FFF7ECFD97F90730184600F057
:1020980012F80837BD4680BDAC4B1B68012B03D036
:1020A8004FF0000300DF05E0A94B1B6800B5984717
:1020B8005DF804EB7047A54B1B68012B03D04FF06C
:1020C800010301DF05E0A24B5B6800B598475DF8A6
:1020D80004EB70479D4B1B68012B03D04FF00203A4
:1020E80002DF05E09A4B9B6800B598475DF804EB62
:1020F8007047964B1B68012B03D04FF0030303DF97
:1021080005E0934BDB6800B598475DF804EB704732
:102118008E4B1B68012B03D04FF0040304DF05E04E
:102128008B4B1B6900B598475DF804EB7047874BEC
:102138001B68012B03D04FF0050305DF05E0844B36
:102148005B6900B598475DF804EB70477F4B1B68E7
:10215800012B03D04FF0060306DF05E07C4B9B699B
:1021680000B598475DF804EB7047784B1B68012B66
:1021780003D04FF0070307DF05E0754BDB6900B5B7
:1021880098475DF804EB7047704B1B68012B03D030
:102198004FF0080308DF05E06D4B1B6A00B5984750
:1021A8005DF804EB7047694B1B68012B03D04FF0B7
:1021B800090309DF05E0664B5B6A00B598475DF8DF
:1021C80004EB7047614B1B68012B03D04FF00A03E7
:1021D8000ADF05E05E4B9B6A00B598475DF804EBA3
:1021E80070475A4B1B68012B03D04FF00B030BDFD2
:1021F80005E0574BDB6A00B598475DF804EB70477C
:10220800524B1B68012B03D04FF00C030CDF05E089
:102218004F4B1B6B00B598475DF804EB70474B4B71
:102228001B68012B03D04FF00D030DDF05E0484B71
:102238005B6B00B598475DF804EB7047434B1B6830
:10224800012B03D04FF00E030EDF05E0404B9B6BD4
:1022580000B598475DF804EB70473C4B1B68012BB1
:1022680003D04FF00F030FDF05E0394BDB6B00B5F0
:1022780098475DF804EB7047344B1B68012B03D07B
:102288004FF0100310DF05E0314B1B6C00B5984789
:102298005DF804EB70472D4B1B68012B03D04FF002
:1022A800110311DF05E02A4B5B6C00B598475DF818
:1022B80004EB7047254B1B68012B03D04FF012032A
:1022C80012DF05E0224B9B6C00B598475DF804EBE4
:1022D80070471E4B1B68012B03D04FF0130313DF0D
:1022E80005E01B4BDB6C00B598475DF804EB7047C5
:1022F800164B1B68012B03D04FF0140314DF05E0C5
:10230800134B1B6D00B598475DF804EB70470F4BF6
:102318001B68012B03D04FF0150315DF05E00C4BAC
:102328005B6D00B598475DF804EB7047074B1B6879
:10233800012B03D04FF0160316DF05E0044B9B6D0D
:1023480000B598475DF804EB70470000F081FF1F67
:102358007C1E000080B500AF0320012100F0C4FA04
:102368000420012100F0C0FA0520012100F0BCFA88
:102378000620012100F0B8FA0720012100F0B4FA84
:10238800074814210422002300F008FC054B1B78A1
:102398005BB21846FFF76CFE0023184680BD00BFED
:1023A800F48BFF1F401F000080B500AF1148124991
:1023B80001F00CF80420002100F02AFA0520002181
:1023C80000F026FA0620002100F022FA032001215D
:1023D80000F01EFA094B1A78094B1B7852B21046C6
:1023E8001946FFF776FF0348064900F0EFFFFFF7AD
:1023F800F8FE80BDF48BFF1F1C1F0000DB1E0000D1
:10240800DA1E0000241F000080B500AF11481249F1
:1024180000F0DCFF0320002100F0FAF9052000217C
:1024280000F0F6F90620002100F0F2F9042001215D
:1024380000F0EEF9094B1A78094B1B7852B2104696
:102448001946FFF746FF0348064900F0BFFFFFF7AC
:10245800C8FE80BDF48BFF1F281F0000DB1E000094
:10246800D81E0000301F000080B500AF1148124987
:1024780000F0ACFF0420002100F0CAF9032000217D
:1024880000F0C6F90620002100F0C2F9052001215C
:1024980000F0BEF9094B1A78094B1B7852B2104666
:1024A8001946FFF716FF0348064900F08FFFFFF7AC
:1024B80098FE80BDF48BFF1F341F0000DB1E000058
:1024C800D91E00003C1F000080B582B000AF2C4B25
:1024D8001B785BB21846FFF775FE2A4B1B785BB278
:1024E8001846FFF76FFE284B1B785BB21846FFF7BC
:1024F80069FE0620012100F08BF9244B1A78244B41
:102508001B781343DAB2234B1B781343DBB218460C
:10251800FFF70CFF204B1B785AB2BB1D104619461B
:10252800FFF7F5FEBB79FB71FB791846FFF7E0FE74
:10253800BA79164B1B781340DBB2002B05D0104B31
:102548001B785BB21846FFF73DFEBA79104B1B7833
:102558001340DBB2002B05D00A4B1B785BB2184640
:10256800FFF730FEBA790B4B1B781340DBB2002B18
:1025780005D0054B1B785BB21846FFF723FEA6E78C
:10258800DC1E0000DD1E0000DE1E0000DA1E00005A
:0C259800D81E0000D91E0000DB1E000051
:1025A400DCF800C02C68CCF84040EC68CCF8104053
:1025B4002C69CCF81440CCF81860CCF81C70CCF81A
:1025C4002080CCF82490CCF828A0CCF82CB070470C
:1025D400DCF800C0DCF840402C60DCF81040EC6013
:1025E400DCF814402C61DCF81860DCF81C70DCF8B2
:1025F4002080DCF82490DCF828A0DCF82CB07047AC
:10260400EFF3088080F309884FF0020080F3148808
:10261400BFF36F8F00F01CB880B400AFFEE700BFBB
:1026240080B400AF01BEFEE780B400AFFEE700BF98
:1026340080B400AF03BEFEE780B400AF04BEFEE783
:1026440080B400AF05BEFEE780B400AFFEE700BF74
:1026540080B584B000AF534B4CF220521A80514BDA
:102664004DF628121A80504B10221A804F4B4FF00F
:1026740010621A604E4B4F4A1A604F4B4F4A1A6011
:102684004F4B1B6803F48073002B06D14D4B002283
:102694001A604B4B4FF4A8521A604B4B1B78DBB2B9
:1026A40003F00803002B07D0474A474B1B78DBB2E3
:1026B40043F00803DBB21370444B0A221A70444BF4
:1026C40024221A70434BA0221A7000BF424B1B787D
:1026D400DBB203F00203002BF8D000BF3E4B1B78A3
:1026E400DBB203F01003002BF8D100BF3A4B1B7888
:1026F400DBB203F00C03082BF8D1384B03221A7019
:10270400374B40221A7000BF334B1B78DBB203F007
:102714002003002BF8D000BF2F4B1B78DBB203F053
:102724004003002BF8D02F4B2F4A1A60294B20224C
:102734001A7000BF284B1B78DBB203F00C030C2B80
:10274400F8D12A4BFB6005E0FB6800221A60FB68A5
:102754000433FB60FB68264A9342F5D1254BBB60EA
:10276400254B7B6009E0BB681A687B681A607B684C
:1027740004337B60BB680433BB607B681F4A9342AD
:10278400F1D11F4B3B6005E03B681B6898473B68F1
:1027940004333B603B681B4A9342F5D1FFF7DCFDF1
:1027A400FEE700BF0E2005400020054030800440B5
:1027B40038800440823F04003C8004400100002B28
:1027C40010D0034014D0034002D00740005006400C
:1027D40001400640004006400640064004400640D2
:1027E400054006404480044000000301F48BFF1FB1
:1027F400188CFF1F4C3400000080FF1FF481FF1F62
:10280400100400001404000080B400AFBD465DF85D
:10281400047B704780B485B000AF03460A46FB7161
:102824001346BB71FB79212B00D935E0FB791D4A96
:1028340052F8333003F520731B78DBB203F0010345
:10284400002B13D0BB79002B07D0FB79154A52F823
:102854003330803301221A701EE0FB79114A52F89A
:10286400333003F5807301221A7015E0FB790D4AA9
:10287400DB0013445B68FB60BB79002B06D0FB686C
:102884001B6843F00302FB681A6005E0FB681B68E1
:1028940023F00202FB681A601437BD465DF8047B1E
:1028A400704700BF481F000080B483B000AF0346E8
:1028B400FB71FB79212B01D900230EE0FB790A4A35
:1028C40052F8333003F500731B78DBB203F00103D5
:1028D400002B14BF01230023DBB218460C37BD467E
:1028E4005DF8047B704700BF481F000080B485B0CA
:1028F40000AF03460A46FB711346BB71FB79212BDB
:1029040000D93DE0FB79214ADB0013445B68FB609E
:10291400BB79012B16D1FB791C4A52F8333003F5ED
:102924002073FA79194951F8322002F5207212788D
:10293400D2B242F00102D2B21A70FB684FF4A27212
:102944001A601DE0FB79114A52F8333003F5207305
:10295400FA790E4951F8322002F520721278D2B277
:1029640022F00102D2B21A70BB79002B04D1FB68A9
:102974004FF480721A6003E0FB6840F203121A609D
:102984001437BD465DF8047B704700BF481F000044
:1029940080B483B000AF78607B68064A1A607B68B5
:1029A40000225A607B6818460C37BD465DF8047BEC
:1029B400704700BF7020000090B589B006AF786002
:1029C400084611461A460346FB700B46BB70134675
:1029D4007B707B681846FFF7DBFF7B680C4A1A6044
:1029E400FA78BC78FF2300937B7801933B7E0293B3
:1029F4003B7F039397F82030049378681146FF22B5
:102A0400234600F047F87B6818460C37BD4690BD56
:102A14006020000080B586B004AF786039607B68C0
:102A2400012B10D13B684FF6FF7293420BD10F2359
:102A340000930E23019313230293044812211122BD
:102A44001023FFF7B9FF0837BD4680BDF48BFF1F85
:102A540080B500AF01204FF6FF71FFF7DBFF80BDAB
:102A640080B485B000AF78607B68DB7AFF2B0CD133
:102A740040F65433FB60FB685B01BB60BB68002B12
:102A840003D0BB68013BFDD1BB601437BD465DF884
:102A9400047B704780B582B000AF78600846114669
:102AA4001A460346FB700B46BB7013467B707B686B
:102AB400FA789A727B68FF22DA727B687A781A73E2
:102AC4007B683A7C5A737B6800229A737B68002285
:102AD400DA737B6800221A747B6800225A747B685C
:102AE40000229A747B680022DA747B683A7D5A75F6
:102AF4007B683A7E9A757B683A7FDA757B6897F8CB
:102B040020201A763B7D18460121FFF7EFFE3B7E1D
:102B140018460121FFF7EAFE3B7F18460121FFF723
:102B2400E5FE97F8203018460121FFF7DFFE7B68A9
:102B34000022DA767B6840221A777B6814225A775F
:102B44007B6854229A777B689B7A18460121FFF7A9
:102B5400CDFEBB78FF2B09D0BB7818460121FFF7C7
:102B6400C5FEBB7818460021FFF754FE7B681B7B2B
:102B740018460121FFF7BAFE3B7CFF2B04D03B7CB7
:102B840018460121FFF7B2FE7868142101220023C0
:102B940000F006F87B68BA78DA720837BD4680BD63
:102BA40090B585B002AF7860084611461A460346D0
:102BB400FB700B46BB7013467B707B68FA785A76C1
:102BC4007B685A7E7B685A727B68BA789A767B688F
:102BD4009A7E7B681A727B68DA7EFB781344DAB2D9
:102BE4007B685A777B681A7FFB781344DAB27B6878
:102BF4009A777B681B7BF978BA787C78009378683D
:102C0400234600F01BF87B685B7BFF2B12D07B68AC
:102C140000225A777B6840229A777B6802229A7353
:102C24007B685B7BF978BA787C7800937868234674
:102C340000F004F80C37BD4690BD00BF80B58EB0DF
:102C440000AF7860084611461A460346FB700B46EF
:102C5400BB7013467B70002387F83730BB78012B99
:102C640005D997F8373043F0080387F837307B7875
:102C7400002B08D0BB78012B05D197F8373043F0EF
:102C8400040387F83730002387F8363011E041F623
:102C94004C533B633B6B5B01FB62FB6A002B03D031
:102CA400FB6A013BFDD1FB6297F83630013387F8AC
:102CB400363097F83630112BE9D97B689B7A184661
:102CC4000021FFF7A7FD97F8403018460021FFF7D1
:102CD400A1FD7B689B7A18460021FFF79BFD78686D
:102CE400032100F0D3FA41F28833BB62BB6A5B0173
:102CF4007B627B6A002B03D07B6A013BFDD17B6244
:102D04007868032100F0C2FA96233B623B6A5B01B8
:102D1400FB61FB69002B03D0FB69013BFDD1FB6127
:102D24007868032100F0B2FA9623BB61BB695B01AA
:102D34007B617B69002B03D07B69013BFDD17B6107
:102D44007868022100F0A2FA96233B613B695B019B
:102D5400FB60FB68002B03D0FB68013BFDD1FB60EB
:102D640097F8373043F02003DBB27868194600F057
:102D7400D9F87B680422DA77786800F041F878683B
:102D840000F012F87B68022283F820207B6893F815
:102D9400203043F00403DBB27868194600F0C2F82F
:102DA4003837BD4680BD00BF80B582B000AF7860C3
:102DB4007B685B7BFF2B16D07B6802229A73786852
:102DC400012100F0AFF87B6800229A737868012132
:102DD40000F0A8F87868FFF743FE78680021002225
:102DE40000F03EF806E07868012100F09BF878686E
:102DF400FFF736FE7B680022DA730837BD4680BDD4
:102E040080B582B000AF78607B68DB7F43F0040359
:102E1400DAB27B68DA777B68DB7F43F00803DBB2E6
:102E24007868194600F08EF80837BD4680BD00BFAB
:102E340080B582B000AF78607B68DB7F23F002034B
:102E4400DAB27B68DA777B68DB7F43F00803DBB2B6
:102E54007868194600F066F80837BD4680BD00BFA3
:102E640080B584B000AF78600B46FB701346BB702E
:102E74007B689B7EBA789A4203D97B689B7E013B30
:102E8400BB70BA787B685A74FA787B681A747B686A
:102E940000229A74BB787A681344DB7EDBB203F0B9
:102EA4004003BB73BB787A681344DB7E03F03F03B3
:102EB400DAB2FB781344DAB27B68DB7BDBB213440F
:102EC400DBB2FB7397F90F30272B03DDFB7B283B29
:102ED400DBB2FB7397F90F30002B03DAFB7B28334B
:102EE400DBB2FB73FA7BBB7B1343FB737B689B7B7B
:102EF4001A46BB7803F002039A4202D07868FFF7BF
:102F040097FFBB7803F00203DAB27B689A73FB7B0A
:102F140063F07F03DBB27868194600F003F81037DA
:102F2400BD4680BD80B582B000AF78600B46FB70B3
:102F3400FB7878681946002200F0B2F80837BD46DD
:102F440080BD00BF80B584B000AF78600B46FB70D5
:102F54007B685B7BFF2B06D1FB78786819460022DF
:102F640000F09EF817E07B689B7BFB737B68002274
:102F74009A73FB7878681946002200F091F87B6810
:102F840002229A73FB7878681946002200F088F8C8
:102F94007B68FA7B9A731037BD4680BD80B582B0DA
:102FA40000AF78600B46FB707B68DB7B002B03D1A2
:102FB4007B689B7C002B0AD07B681B7CDAB27B6825
:102FC4005B7CDBB2786811461A46FFF749FFFB7851
:102FD4000D2B08D0FB780A2B05D0FB7878681946AE
:102FE400012200F05DF87B6800229A747B68DB7C28
:102FF400002B22D17B681B7CDBB2DBB20133DBB25A
:10300400DAB27B681A74FB780D2B06D07B681B7CC4
:103014005BB27A68527E934233DB7B6800221A7477
:103024007B685B7CDBB2DBB20133DBB2DAB27B6898
:103034005A747B6801229A7423E07B681B7CDBB2A0
:10304400DBB2013BDBB2DAB27B681A74FB780A2B81
:1030540004D07B681B7C5BB2002B12DA7B685B7E3E
:10306400013BDBB2DAB27B681A747B685B7CDBB24F
:10307400DBB20133DBB2DAB27B685A747B680122BB
:103084009A747B685B7C5BB27A68927E934202DBC3
:103094007B6800225A74012318460837BD4680BD58
:1030A40080B586B000AF78600B46FB701346BB70EA
:1030B4007B681B7BFB757B685B7BFF2B06D07B6887
:1030C4009B7B002B02D07B685B7BFB757B68DB7A88
:1030D400FF2B0DD14FF4A0733B613B695B01FB6097
:1030E400FB68002B64D0FB68013BFDD1FB605FE013
:1030F4007B685B7D18460021FFF7F8FB7B689B7DAE
:1031040018460021FFF7F2FB7B68DB7D184600219F
:10311400FFF7ECFB7B681B7E18460021FFF7E6FBFC
:103124007B68DB7A18460121FFF774FB7B689B7A86
:1031340018460021FFF76EFBFB7D18460121FFF7BF
:1031440069FB7B681B7E1846FFF7AEFB0346BB7525
:10315400FB7D18460021FFF75DFBFB7D184601212E
:10316400FFF758FBFB7D18460021FFF753FBBB7D9F
:10317400012BE1D07B685B7D18460121FFF7B6FB8C
:103184007B689B7D18460121FFF7B0FB7B68DB7DE4
:1031940018460121FFF7AAFB7B681B7E1846012114
:1031A400FFF7A4FB7B68DB7A18460021FFF732FBAC
:1031B4007B689A7ABB7810461946FFF72BFB7B682D
:1031C4005A7DFB7803F01003DBB210461946FFF773
:1031D40021FB7B689A7DFB7803F02003DBB2104669
:1031E4001946FFF717FB7B68DA7DFB7803F0400391
:1031F400DBB210461946FFF70DFB7B681A7EFB789D
:1032040023F07F03DBB210461946FFF703FBFB7D77
:1032140018460121FFF7FEFAFB7D18460021FFF74F
:10322400F9FA7B685A7DFB7803F00103DBB21046A0
:103234001946FFF7EFFA7B689A7DFB7803F00203E7
:10324400DBB210461946FFF7E5FA7B68DA7DFB78B6
:1032540003F00403DBB210461946FFF7DBFA7B6880
:103264001A7EFB7803F00803DBB210461946FFF719
:10327400D1FAFB7D18460121FFF7CCFAFB7D1846F5
:103284000021FFF7C7FA1837BD4680BD80B584B06A
:1032940000AF78600B46FB70FB78BB737B6815331B
:1032A400BB60BB685A1CBA601A78BB7B03F001038D
:1032B400DBB210461946FFF7ADFABB685A1CBA6078
:1032C4001A78BB7B5B10BB73BB7B03F00103DBB2DF
:1032D40010461946FFF79EFABB685A1CBA601A7862
:1032E400BB7B5B10BB73BB7B03F00103DBB21046FB
:1032F4001946FFF78FFABB685A1CBA601A78BB7B71
:103304005B10BB73BB7B03F00103DBB210461946B1
:10331400FFF780FA7B681B7BFB737B685B7BFF2B6F
:1033240006D07B689B7B002B02D07B685B7BFB73A6
:10333400FB7B18460121FFF76DFAFB7B1846002141
:10334400FFF768FA1037BD4680BD00BF90B583B063
:1033540000AF786039603B68002B01D100230CE09A
:103364007B681B6804331C68386800F03FF8034628
:10337400786839681A46A047034618460C37BD4694
:1033840090BD00BF80B586B000AFF860B9607A60C8
:1033940000237B610DE0FB681B681A68BB68591C3D
:1033A400B9601B78F8681946904702467B69134454
:1033B4007B617B685A1E7A60002B14BF01230023B3
:1033C400DBB2002BE7D17B6918461837BD4680BDB8
:1033D40080B582B000AF7860396078683968FFF7EB
:1033E400B5FF034618460837BD4680BD20F00301EB
:1033F40010F00300C0F1000051F8043B00F1040C8C
:103404004FEACC0C6FF000021CBF22FA0CF21343FB
:103414004FF0010C4CEA0C2C4CEA0C4CA3EB0C02C4
:1034240022EA030212EACC1204BF51F8043B04302E
:10343400F4D0C2F1000102EA0102B2FA82F2C2F14E
:083444001F0200EBD2007047EB
:10344C0003000000FF00000000000000000000006E
:10345C000000000000000000000000000300FF005E
:10346C000000000001000000FF7F000001000000D0
:10347C000000000000000000000000000000000040
:10348C000000000000000000000000000000000030
:10349C000000000000000000000000000000000020
:1034AC000000000000000000000000000000000010
:1034BC000000000000000000000000000000000000
:1034CC0000000000000000000000000000000000F0
:1034DC0000000000000000000000000000000000E0
:1034EC0000000000000000000000000000000000D0
:1034FC0000000000000000000000000000000000C0
:10350C0000000000000000000000000000000000AF
:10351C000000000000000000000204000000000099
:10352C00000000000000000000000000000000008F
:10353C00000000000000000000000000000000007F
:10354C00000000000000000000000000000000006F
:10355C00000000000000000000000000000000005F
:10356C00000000000000000000010000000000004E
:10357C00000000000000000000000000000000003F
:10358C00000000000000000000000000000000002F
:10359C00000000000000000000000000000000001F
:1035AC00000000000000000000000000000000000F
:1035BC0000000000000100000000000000000000FE
:1035CC0000000000000000000000000000000000EF
:1035DC0000000000000000000000000000000000DF
:1035EC0000000000000000000000000000000000CF
:1035FC0000000000000000000000000000000000BF
:10360C0000010000000000000000000000000000AD
:10361C000000000000000000D81D000000000000A9
:10362C008880FF1FFFFFFFFFFFFFFFFF0000000070
:04363C00000000008A
:10364000000000000000000000000000000000007A
:10365000000000000000000000000000000000006A
:10366000000000000000000000000000000000005A
:10367000000000000000000000000000000000004A
:043A3C000000000086
:103A40000000000000000000000000000000000076
:103A50000000000000000000000000000000000066
:103A60000000000000000000000000000000000056
:103A70000000000000000000000000000000000046
:0400000300002605CE
:00000001FF
